:100000000C9434000C943E000C943E000C943E0082
:100010000C943E000C943E000C943E000C943E0068
:100020000C943E000C943E000C943E000C943E0058
:100030000C943E000C943E000C943E000C943E0048
:100040000C943E000C943E000C943E000C943E0038
:100050000C943E000C943E000C943E000C943E0028
:100060000C943E000C943E0011241FBECFEFD8E04C
:10007000DEBFCDBF0E9440000C9460000C940000D5
:10008000209A5098589A40E951E048990DC0289A12
:1000900020E030E0CA010197F1F72F5F3F4F283C85
:1000A0003105C1F7489BF3CF289820E030E0CA0122
:1000B0000197F1F72F5F3F4F283C3105C1F7E5CF9E
:0400C000F894FFCFE2
:00000001FF
